{
  "_format": "hh-sol-artifact-1",
  "contractName": "MyNFT",
  "sourceName": "contracts/NFT.sol",
  "abi": [
    {
      "inputs": [
        {
          "internalType": "address",
          "name": "initialOwner",
          "type": "address"
        },
        {
          "internalType": "uint96",
          "name": "defaultRoyaltyFee",
          "type": "uint96"
        }
      ],
      "stateMutability": "nonpayable",
      "type": "constructor"
    },
    {
      "inputs": [
        {
          "internalType": "uint256",
          "name": "numerator",
          "type": "uint256"
        },
        {
          "internalType": "uint256",
          "name": "denominator",
          "type": "uint256"
        }
      ],
      "name": "ERC2981InvalidDefaultRoyalty",
      "type": "error"
    },
    {
      "inputs": [
        {
          "internalType": "address",
          "name": "receiver",
          "type": "address"
        }
      ],
      "name": "ERC2981InvalidDefaultRoyaltyReceiver",
      "type": "error"
    },
    {
      "inputs": [
        {
          "internalType": "uint256",
          "name": "tokenId",
          "type": "uint256"
        },
        {
          "internalType": "uint256",
          "name": "numerator",
          "type": "uint256"
        },
        {
          "internalType": "uint256",
          "name": "denominator",
          "type": "uint256"
        }
      ],
      "name": "ERC2981InvalidTokenRoyalty",
      "type": "error"
    },
    {
      "inputs": [
        {
          "internalType": "uint256",
          "name": "tokenId",
          "type": "uint256"
        },
        {
          "internalType": "address",
          "name": "receiver",
          "type": "address"
        }
      ],
      "name": "ERC2981InvalidTokenRoyaltyReceiver",
      "type": "error"
    },
    {
      "inputs": [
        {
          "internalType": "address",
          "name": "sender",
          "type": "address"
        },
        {
          "internalType": "uint256",
          "name": "tokenId",
          "type": "uint256"
        },
        {
          "internalType": "address",
          "name": "owner",
          "type": "address"
        }
      ],
      "name": "ERC721IncorrectOwner",
      "type": "error"
    },
    {
      "inputs": [
        {
          "internalType": "address",
          "name": "operator",
          "type": "address"
        },
        {
          "internalType": "uint256",
          "name": "tokenId",
          "type": "uint256"
        }
      ],
      "name": "ERC721InsufficientApproval",
      "type": "error"
    },
    {
      "inputs": [
        {
          "internalType": "address",
          "name": "approver",
          "type": "address"
        }
      ],
      "name": "ERC721InvalidApprover",
      "type": "error"
    },
    {
      "inputs": [
        {
          "internalType": "address",
          "name": "operator",
          "type": "address"
        }
      ],
      "name": "ERC721InvalidOperator",
      "type": "error"
    },
    {
      "inputs": [
        {
          "internalType": "address",
          "name": "owner",
          "type": "address"
        }
      ],
      "name": "ERC721InvalidOwner",
      "type": "error"
    },
    {
      "inputs": [
        {
          "internalType": "address",
          "name": "receiver",
          "type": "address"
        }
      ],
      "name": "ERC721InvalidReceiver",
      "type": "error"
    },
    {
      "inputs": [
        {
          "internalType": "address",
          "name": "sender",
          "type": "address"
        }
      ],
      "name": "ERC721InvalidSender",
      "type": "error"
    },
    {
      "inputs": [
        {
          "internalType": "uint256",
          "name": "tokenId",
          "type": "uint256"
        }
      ],
      "name": "ERC721NonexistentToken",
      "type": "error"
    },
    {
      "inputs": [
        {
          "internalType": "address",
          "name": "owner",
          "type": "address"
        }
      ],
      "name": "OwnableInvalidOwner",
      "type": "error"
    },
    {
      "inputs": [
        {
          "internalType": "address",
          "name": "account",
          "type": "address"
        }
      ],
      "name": "OwnableUnauthorizedAccount",
      "type": "error"
    },
    {
      "anonymous": false,
      "inputs": [
        {
          "indexed": true,
          "internalType": "address",
          "name": "owner",
          "type": "address"
        },
        {
          "indexed": true,
          "internalType": "address",
          "name": "approved",
          "type": "address"
        },
        {
          "indexed": true,
          "internalType": "uint256",
          "name": "tokenId",
          "type": "uint256"
        }
      ],
      "name": "Approval",
      "type": "event"
    },
    {
      "anonymous": false,
      "inputs": [
        {
          "indexed": true,
          "internalType": "address",
          "name": "owner",
          "type": "address"
        },
        {
          "indexed": true,
          "internalType": "address",
          "name": "operator",
          "type": "address"
        },
        {
          "indexed": false,
          "internalType": "bool",
          "name": "approved",
          "type": "bool"
        }
      ],
      "name": "ApprovalForAll",
      "type": "event"
    },
    {
      "anonymous": false,
      "inputs": [
        {
          "indexed": false,
          "internalType": "uint256",
          "name": "_fromTokenId",
          "type": "uint256"
        },
        {
          "indexed": false,
          "internalType": "uint256",
          "name": "_toTokenId",
          "type": "uint256"
        }
      ],
      "name": "BatchMetadataUpdate",
      "type": "event"
    },
    {
      "anonymous": false,
      "inputs": [
        {
          "indexed": false,
          "internalType": "uint256",
          "name": "_tokenId",
          "type": "uint256"
        }
      ],
      "name": "MetadataUpdate",
      "type": "event"
    },
    {
      "anonymous": false,
      "inputs": [
        {
          "indexed": false,
          "internalType": "uint256",
          "name": "tokenId",
          "type": "uint256"
        },
        {
          "indexed": false,
          "internalType": "string",
          "name": "newUri",
          "type": "string"
        },
        {
          "indexed": false,
          "internalType": "uint256",
          "name": "timestamp",
          "type": "uint256"
        }
      ],
      "name": "MetadataUpdated",
      "type": "event"
    },
    {
      "anonymous": false,
      "inputs": [
        {
          "indexed": true,
          "internalType": "address",
          "name": "previousOwner",
          "type": "address"
        },
        {
          "indexed": true,
          "internalType": "address",
          "name": "newOwner",
          "type": "address"
        }
      ],
      "name": "OwnershipTransferred",
      "type": "event"
    },
    {
      "anonymous": false,
      "inputs": [
        {
          "indexed": true,
          "internalType": "address",
          "name": "from",
          "type": "address"
        },
        {
          "indexed": true,
          "internalType": "address",
          "name": "to",
          "type": "address"
        },
        {
          "indexed": true,
          "internalType": "uint256",
          "name": "tokenId",
          "type": "uint256"
        }
      ],
      "name": "Transfer",
      "type": "event"
    },
    {
      "inputs": [
        {
          "internalType": "address",
          "name": "to",
          "type": "address"
        },
        {
          "internalType": "uint256",
          "name": "tokenId",
          "type": "uint256"
        }
      ],
      "name": "approve",
      "outputs": [],
      "stateMutability": "nonpayable",
      "type": "function"
    },
    {
      "inputs": [
        {
          "internalType": "address",
          "name": "owner",
          "type": "address"
        }
      ],
      "name": "balanceOf",
      "outputs": [
        {
          "internalType": "uint256",
          "name": "",
          "type": "uint256"
        }
      ],
      "stateMutability": "view",
      "type": "function"
    },
    {
      "inputs": [
        {
          "internalType": "uint256",
          "name": "tokenId",
          "type": "uint256"
        }
      ],
      "name": "getApproved",
      "outputs": [
        {
          "internalType": "address",
          "name": "",
          "type": "address"
        }
      ],
      "stateMutability": "view",
      "type": "function"
    },
    {
      "inputs": [
        {
          "internalType": "uint256",
          "name": "tokenId",
          "type": "uint256"
        }
      ],
      "name": "getCreator",
      "outputs": [
        {
          "internalType": "address",
          "name": "",
          "type": "address"
        }
      ],
      "stateMutability": "view",
      "type": "function"
    },
    {
      "inputs": [
        {
          "internalType": "address",
          "name": "owner",
          "type": "address"
        },
        {
          "internalType": "address",
          "name": "operator",
          "type": "address"
        }
      ],
      "name": "isApprovedForAll",
      "outputs": [
        {
          "internalType": "bool",
          "name": "",
          "type": "bool"
        }
      ],
      "stateMutability": "view",
      "type": "function"
    },
    {
      "inputs": [
        {
          "internalType": "address",
          "name": "recipient",
          "type": "address"
        },
        {
          "internalType": "string",
          "name": "uri",
          "type": "string"
        }
      ],
      "name": "mintNFT",
      "outputs": [
        {
          "internalType": "uint256",
          "name": "",
          "type": "uint256"
        }
      ],
      "stateMutability": "nonpayable",
      "type": "function"
    },
    {
      "inputs": [],
      "name": "name",
      "outputs": [
        {
          "internalType": "string",
          "name": "",
          "type": "string"
        }
      ],
      "stateMutability": "view",
      "type": "function"
    },
    {
      "inputs": [],
      "name": "owner",
      "outputs": [
        {
          "internalType": "address",
          "name": "",
          "type": "address"
        }
      ],
      "stateMutability": "view",
      "type": "function"
    },
    {
      "inputs": [
        {
          "internalType": "uint256",
          "name": "tokenId",
          "type": "uint256"
        }
      ],
      "name": "ownerOf",
      "outputs": [
        {
          "internalType": "address",
          "name": "",
          "type": "address"
        }
      ],
      "stateMutability": "view",
      "type": "function"
    },
    {
      "inputs": [],
      "name": "renounceOwnership",
      "outputs": [],
      "stateMutability": "nonpayable",
      "type": "function"
    },
    {
      "inputs": [
        {
          "internalType": "uint256",
          "name": "tokenId",
          "type": "uint256"
        },
        {
          "internalType": "uint256",
          "name": "salePrice",
          "type": "uint256"
        }
      ],
      "name": "royaltyInfo",
      "outputs": [
        {
          "internalType": "address",
          "name": "receiver",
          "type": "address"
        },
        {
          "internalType": "uint256",
          "name": "amount",
          "type": "uint256"
        }
      ],
      "stateMutability": "view",
      "type": "function"
    },
    {
      "inputs": [
        {
          "internalType": "address",
          "name": "from",
          "type": "address"
        },
        {
          "internalType": "address",
          "name": "to",
          "type": "address"
        },
        {
          "internalType": "uint256",
          "name": "tokenId",
          "type": "uint256"
        }
      ],
      "name": "safeTransferFrom",
      "outputs": [],
      "stateMutability": "nonpayable",
      "type": "function"
    },
    {
      "inputs": [
        {
          "internalType": "address",
          "name": "from",
          "type": "address"
        },
        {
          "internalType": "address",
          "name": "to",
          "type": "address"
        },
        {
          "internalType": "uint256",
          "name": "tokenId",
          "type": "uint256"
        },
        {
          "internalType": "bytes",
          "name": "data",
          "type": "bytes"
        }
      ],
      "name": "safeTransferFrom",
      "outputs": [],
      "stateMutability": "nonpayable",
      "type": "function"
    },
    {
      "inputs": [
        {
          "internalType": "address",
          "name": "operator",
          "type": "address"
        },
        {
          "internalType": "bool",
          "name": "approved",
          "type": "bool"
        }
      ],
      "name": "setApprovalForAll",
      "outputs": [],
      "stateMutability": "nonpayable",
      "type": "function"
    },
    {
      "inputs": [
        {
          "internalType": "bytes4",
          "name": "interfaceId",
          "type": "bytes4"
        }
      ],
      "name": "supportsInterface",
      "outputs": [
        {
          "internalType": "bool",
          "name": "",
          "type": "bool"
        }
      ],
      "stateMutability": "view",
      "type": "function"
    },
    {
      "inputs": [],
      "name": "symbol",
      "outputs": [
        {
          "internalType": "string",
          "name": "",
          "type": "string"
        }
      ],
      "stateMutability": "view",
      "type": "function"
    },
    {
      "inputs": [
        {
          "internalType": "uint256",
          "name": "tokenId",
          "type": "uint256"
        }
      ],
      "name": "tokenURI",
      "outputs": [
        {
          "internalType": "string",
          "name": "",
          "type": "string"
        }
      ],
      "stateMutability": "view",
      "type": "function"
    },
    {
      "inputs": [
        {
          "internalType": "address",
          "name": "from",
          "type": "address"
        },
        {
          "internalType": "address",
          "name": "to",
          "type": "address"
        },
        {
          "internalType": "uint256",
          "name": "tokenId",
          "type": "uint256"
        }
      ],
      "name": "transferFrom",
      "outputs": [],
      "stateMutability": "nonpayable",
      "type": "function"
    },
    {
      "inputs": [
        {
          "internalType": "address",
          "name": "newOwner",
          "type": "address"
        }
      ],
      "name": "transferOwnership",
      "outputs": [],
      "stateMutability": "nonpayable",
      "type": "function"
    },
    {
      "inputs": [
        {
          "internalType": "uint256",
          "name": "tokenId",
          "type": "uint256"
        },
        {
          "internalType": "string",
          "name": "newUri",
          "type": "string"
        }
      ],
      "name": "updateMetadata",
      "outputs": [],
      "stateMutability": "nonpayable",
      "type": "function"
    }
  ],
  "bytecode": "0x60806040523480156200001157600080fd5b50604051620035133803806200351383398181016040528101906200003791906200049e565b816040518060400160405280600581526020017f4d794e46540000000000000000000000000000000000000000000000000000008152506040518060400160405280600481526020017f4d4e4654000000000000000000000000000000000000000000000000000000008152508160009081620000b591906200075f565b508060019081620000c791906200075f565b505050600073ffffffffffffffffffffffffffffffffffffffff168173ffffffffffffffffffffffffffffffffffffffff16036200013f5760006040517f1e4fbdf700000000000000000000000000000000000000000000000000000000815260040162000136919062000857565b60405180910390fd5b62000150816200016b60201b60201c565b506200016382826200023160201b60201c565b5050620008eb565b6000600960009054906101000a900473ffffffffffffffffffffffffffffffffffffffff16905081600960006101000a81548173ffffffffffffffffffffffffffffffffffffffff021916908373ffffffffffffffffffffffffffffffffffffffff1602179055508173ffffffffffffffffffffffffffffffffffffffff168173ffffffffffffffffffffffffffffffffffffffff167f8be0079c531659141344cd1fd0a4f28419497f9722a3daafe3b4186f6b6457e060405160405180910390a35050565b600062000243620003e160201b60201c565b6bffffffffffffffffffffffff16905080826bffffffffffffffffffffffff161115620002ab5781816040517f6f483d09000000000000000000000000000000000000000000000000000000008152600401620002a2929190620008be565b60405180910390fd5b600073ffffffffffffffffffffffffffffffffffffffff168373ffffffffffffffffffffffffffffffffffffffff1603620003205760006040517fb6d9900a00000000000000000000000000000000000000000000000000000000815260040162000317919062000857565b60405180910390fd5b60405180604001604052808473ffffffffffffffffffffffffffffffffffffffff168152602001836bffffffffffffffffffffffff16815250600760008201518160000160006101000a81548173ffffffffffffffffffffffffffffffffffffffff021916908373ffffffffffffffffffffffffffffffffffffffff16021790555060208201518160000160146101000a8154816bffffffffffffffffffffffff02191690836bffffffffffffffffffffffff160217905550905050505050565b6000612710905090565b600080fd5b600073ffffffffffffffffffffffffffffffffffffffff82169050919050565b60006200041d82620003f0565b9050919050565b6200042f8162000410565b81146200043b57600080fd5b50565b6000815190506200044f8162000424565b92915050565b60006bffffffffffffffffffffffff82169050919050565b620004788162000455565b81146200048457600080fd5b50565b60008151905062000498816200046d565b92915050565b60008060408385031215620004b857620004b7620003eb565b5b6000620004c8858286016200043e565b9250506020620004db8582860162000487565b9150509250929050565b600081519050919050565b7f4e487b7100000000000000000000000000000000000000000000000000000000600052604160045260246000fd5b7f4e487b7100000000000000000000000000000000000000000000000000000000600052602260045260246000fd5b600060028204905060018216806200056757607f821691505b6020821081036200057d576200057c6200051f565b5b50919050565b60008190508160005260206000209050919050565b60006020601f8301049050919050565b600082821b905092915050565b600060088302620005e77fffffffffffffffffffffffffffffffffffffffffffffffffffffffffffffffff82620005a8565b620005f38683620005a8565b95508019841693508086168417925050509392505050565b6000819050919050565b6000819050919050565b6000620006406200063a62000634846200060b565b62000615565b6200060b565b9050919050565b6000819050919050565b6200065c836200061f565b620006746200066b8262000647565b848454620005b5565b825550505050565b600090565b6200068b6200067c565b6200069881848462000651565b505050565b5b81811015620006c057620006b460008262000681565b6001810190506200069e565b5050565b601f8211156200070f57620006d98162000583565b620006e48462000598565b81016020851015620006f4578190505b6200070c620007038562000598565b8301826200069d565b50505b505050565b600082821c905092915050565b6000620007346000198460080262000714565b1980831691505092915050565b60006200074f838362000721565b9150826002028217905092915050565b6200076a82620004e5565b67ffffffffffffffff811115620007865762000785620004f0565b5b6200079282546200054e565b6200079f828285620006c4565b600060209050601f831160018114620007d75760008415620007c2578287015190505b620007ce858262000741565b8655506200083e565b601f198416620007e78662000583565b60005b828110156200081157848901518255600182019150602085019450602081019050620007ea565b868310156200083157848901516200082d601f89168262000721565b8355505b6001600288020188555050505b505050505050565b620008518162000410565b82525050565b60006020820190506200086e600083018462000846565b92915050565b6000620008956200088f620008898462000455565b62000615565b6200060b565b9050919050565b620008a78162000874565b82525050565b620008b8816200060b565b82525050565b6000604082019050620008d560008301856200089c565b620008e46020830184620008ad565b9392505050565b612c1880620008fb6000396000f3fe608060405234801561001057600080fd5b506004361061012c5760003560e01c8063715018a6116100ad578063c87b56dd11610071578063c87b56dd1461032e578063d48e638a1461035e578063e985e9c51461038e578063eacabe14146103be578063f2fde38b146103ee5761012c565b8063715018a6146102b05780638da5cb5b146102ba57806395d89b41146102d8578063a22cb465146102f6578063b88d4fde146103125761012c565b80632a55205a116100f45780632a55205a146101e757806342842e0e1461021857806353c8388e146102345780636352211e1461025057806370a08231146102805761012c565b806301ffc9a71461013157806306fdde0314610161578063081812fc1461017f578063095ea7b3146101af57806323b872dd146101cb575b600080fd5b61014b60048036038101906101469190611eb7565b61040a565b6040516101589190611eff565b60405180910390f35b61016961041c565b6040516101769190611faa565b60405180910390f35b61019960048036038101906101949190612002565b6104ae565b6040516101a69190612070565b60405180910390f35b6101c960048036038101906101c491906120b7565b6104ca565b005b6101e560048036038101906101e091906120f7565b6104e0565b005b61020160048036038101906101fc919061214a565b6105e2565b60405161020f929190612199565b60405180910390f35b610232600480360381019061022d91906120f7565b610712565b005b61024e600480360381019061024991906122f7565b610732565b005b61026a60048036038101906102659190612002565b61085d565b6040516102779190612070565b60405180910390f35b61029a60048036038101906102959190612353565b61086f565b6040516102a79190612380565b60405180910390f35b6102b8610929565b005b6102c261093d565b6040516102cf9190612070565b60405180910390f35b6102e0610967565b6040516102ed9190611faa565b60405180910390f35b610310600480360381019061030b91906123c7565b6109f9565b005b61032c600480360381019061032791906124a8565b610a0f565b005b61034860048036038101906103439190612002565b610a34565b6040516103559190611faa565b60405180910390f35b61037860048036038101906103739190612002565b610b47565b6040516103859190612070565b60405180910390f35b6103a860048036038101906103a3919061252b565b610b84565b6040516103b59190611eff565b60405180910390f35b6103d860048036038101906103d3919061256b565b610c18565b6040516103e59190612380565b60405180910390f35b61040860048036038101906104039190612353565b610cb1565b005b600061041582610d37565b9050919050565b60606000805461042b906125f6565b80601f0160208091040260200160405190810160405280929190818152602001828054610457906125f6565b80156104a45780601f10610479576101008083540402835291602001916104a4565b820191906000526020600020905b81548152906001019060200180831161048757829003601f168201915b5050505050905090565b60006104b982610db1565b506104c382610e39565b9050919050565b6104dc82826104d7610e76565b610e7e565b5050565b600073ffffffffffffffffffffffffffffffffffffffff168273ffffffffffffffffffffffffffffffffffffffff16036105525760006040517f64a0ae920000000000000000000000000000000000000000000000000000000081526004016105499190612070565b60405180910390fd5b60006105668383610561610e76565b610e90565b90508373ffffffffffffffffffffffffffffffffffffffff168173ffffffffffffffffffffffffffffffffffffffff16146105dc578382826040517f64283d7b0000000000000000000000000000000000000000000000000000000081526004016105d393929190612627565b60405180910390fd5b50505050565b600080600060086000868152602001908152602001600020905060008160000160009054906101000a900473ffffffffffffffffffffffffffffffffffffffff16905060008260000160149054906101000a90046bffffffffffffffffffffffff169050600073ffffffffffffffffffffffffffffffffffffffff168273ffffffffffffffffffffffffffffffffffffffff16036106c357600760000160009054906101000a900473ffffffffffffffffffffffffffffffffffffffff169150600760000160149054906101000a90046bffffffffffffffffffffffff1690505b60006106cd6110aa565b6bffffffffffffffffffffffff16826bffffffffffffffffffffffff16886106f5919061268d565b6106ff91906126fe565b9050828195509550505050509250929050565b61072d83838360405180602001604052806000815250610a0f565b505050565b61073b8261085d565b73ffffffffffffffffffffffffffffffffffffffff16610759610e76565b73ffffffffffffffffffffffffffffffffffffffff1614806107b5575061077e610e76565b73ffffffffffffffffffffffffffffffffffffffff1661079d836104ae565b73ffffffffffffffffffffffffffffffffffffffff16145b806107d557506107d46107c78361085d565b6107cf610e76565b610b84565b5b610814576040517f08c379a000000000000000000000000000000000000000000000000000000000815260040161080b9061277b565b60405180910390fd5b61081e82826110b4565b7faef83f88d7b64742932e336e35ec4ebdbf35e2824c4cc154007911e95b72367e8282426040516108519392919061279b565b60405180910390a15050565b600061086882610db1565b9050919050565b60008073ffffffffffffffffffffffffffffffffffffffff168273ffffffffffffffffffffffffffffffffffffffff16036108e25760006040517f89c62b640000000000000000000000000000000000000000000000000000000081526004016108d99190612070565b60405180910390fd5b600360008373ffffffffffffffffffffffffffffffffffffffff1673ffffffffffffffffffffffffffffffffffffffff168152602001908152602001600020549050919050565b610931611110565b61093b6000611197565b565b6000600960009054906101000a900473ffffffffffffffffffffffffffffffffffffffff16905090565b606060018054610976906125f6565b80601f01602080910402602001604051908101604052809291908181526020018280546109a2906125f6565b80156109ef5780601f106109c4576101008083540402835291602001916109ef565b820191906000526020600020905b8154815290600101906020018083116109d257829003601f168201915b5050505050905090565b610a0b610a04610e76565b838361125d565b5050565b610a1a8484846104e0565b610a2e610a25610e76565b858585856113cc565b50505050565b6060610a3f82610db1565b506000600660008481526020019081526020016000208054610a60906125f6565b80601f0160208091040260200160405190810160405280929190818152602001828054610a8c906125f6565b8015610ad95780601f10610aae57610100808354040283529160200191610ad9565b820191906000526020600020905b815481529060010190602001808311610abc57829003601f168201915b505050505090506000610aea61157d565b90506000815103610aff578192505050610b42565b600082511115610b34578082604051602001610b1c929190612815565b60405160208183030381529060405292505050610b42565b610b3d84611594565b925050505b919050565b6000600b600083815260200190815260200160002060009054906101000a900473ffffffffffffffffffffffffffffffffffffffff169050919050565b6000600560008473ffffffffffffffffffffffffffffffffffffffff1673ffffffffffffffffffffffffffffffffffffffff16815260200190815260200160002060008373ffffffffffffffffffffffffffffffffffffffff1673ffffffffffffffffffffffffffffffffffffffff16815260200190815260200160002060009054906101000a900460ff16905092915050565b6000610c22611110565b600a6000815480929190610c3590612839565b91905055506000600a549050610c4b84826115fd565b610c5581846110b4565b83600b600083815260200190815260200160002060006101000a81548173ffffffffffffffffffffffffffffffffffffffff021916908373ffffffffffffffffffffffffffffffffffffffff1602179055508091505092915050565b610cb9611110565b600073ffffffffffffffffffffffffffffffffffffffff168173ffffffffffffffffffffffffffffffffffffffff1603610d2b5760006040517f1e4fbdf7000000000000000000000000000000000000000000000000000000008152600401610d229190612070565b60405180910390fd5b610d3481611197565b50565b60007f2a55205a000000000000000000000000000000000000000000000000000000007bffffffffffffffffffffffffffffffffffffffffffffffffffffffff1916827bffffffffffffffffffffffffffffffffffffffffffffffffffffffff19161480610daa5750610da9826116f6565b5b9050919050565b600080610dbd83611757565b9050600073ffffffffffffffffffffffffffffffffffffffff168173ffffffffffffffffffffffffffffffffffffffff1603610e3057826040517f7e273289000000000000000000000000000000000000000000000000000000008152600401610e279190612380565b60405180910390fd5b80915050919050565b60006004600083815260200190815260200160002060009054906101000a900473ffffffffffffffffffffffffffffffffffffffff169050919050565b600033905090565b610e8b8383836001611794565b505050565b600080610e9c84611757565b9050600073ffffffffffffffffffffffffffffffffffffffff168373ffffffffffffffffffffffffffffffffffffffff1614610ede57610edd818486611959565b5b600073ffffffffffffffffffffffffffffffffffffffff168173ffffffffffffffffffffffffffffffffffffffff1614610f6f57610f20600085600080611794565b6001600360008373ffffffffffffffffffffffffffffffffffffffff1673ffffffffffffffffffffffffffffffffffffffff168152602001908152602001600020600082825403925050819055505b600073ffffffffffffffffffffffffffffffffffffffff168573ffffffffffffffffffffffffffffffffffffffff1614610ff2576001600360008773ffffffffffffffffffffffffffffffffffffffff1673ffffffffffffffffffffffffffffffffffffffff168152602001908152602001600020600082825401925050819055505b846002600086815260200190815260200160002060006101000a81548173ffffffffffffffffffffffffffffffffffffffff021916908373ffffffffffffffffffffffffffffffffffffffff160217905550838573ffffffffffffffffffffffffffffffffffffffff168273ffffffffffffffffffffffffffffffffffffffff167fddf252ad1be2c89b69c2b068fc378daa952ba7f163c4a11628f55a4df523b3ef60405160405180910390a4809150509392505050565b6000612710905090565b806006600084815260200190815260200160002090816110d49190612a2d565b507ff8e1a15aba9398e019f0b49df1a4fde98ee17ae345cb5f6b5e2c27f5033e8ce7826040516111049190612380565b60405180910390a15050565b611118610e76565b73ffffffffffffffffffffffffffffffffffffffff1661113661093d565b73ffffffffffffffffffffffffffffffffffffffff161461119557611159610e76565b6040517f118cdaa700000000000000000000000000000000000000000000000000000000815260040161118c9190612070565b60405180910390fd5b565b6000600960009054906101000a900473ffffffffffffffffffffffffffffffffffffffff16905081600960006101000a81548173ffffffffffffffffffffffffffffffffffffffff021916908373ffffffffffffffffffffffffffffffffffffffff1602179055508173ffffffffffffffffffffffffffffffffffffffff168173ffffffffffffffffffffffffffffffffffffffff167f8be0079c531659141344cd1fd0a4f28419497f9722a3daafe3b4186f6b6457e060405160405180910390a35050565b600073ffffffffffffffffffffffffffffffffffffffff168273ffffffffffffffffffffffffffffffffffffffff16036112ce57816040517f5b08ba180000000000000000000000000000000000000000000000000000000081526004016112c59190612070565b60405180910390fd5b80600560008573ffffffffffffffffffffffffffffffffffffffff1673ffffffffffffffffffffffffffffffffffffffff16815260200190815260200160002060008473ffffffffffffffffffffffffffffffffffffffff1673ffffffffffffffffffffffffffffffffffffffff16815260200190815260200160002060006101000a81548160ff0219169083151502179055508173ffffffffffffffffffffffffffffffffffffffff168373ffffffffffffffffffffffffffffffffffffffff167f17307eab39ab6107e8899845ad3d59bd9653f200f220920489ca2b5937696c31836040516113bf9190611eff565b60405180910390a3505050565b60008373ffffffffffffffffffffffffffffffffffffffff163b1115611576578273ffffffffffffffffffffffffffffffffffffffff1663150b7a02868685856040518563ffffffff1660e01b815260040161142b9493929190612b54565b6020604051808303816000875af192505050801561146757506040513d601f19601f820116820180604052508101906114649190612bb5565b60015b6114eb573d8060008114611497576040519150601f19603f3d011682016040523d82523d6000602084013e61149c565b606091505b5060008151036114e357836040517f64a0ae920000000000000000000000000000000000000000000000000000000081526004016114da9190612070565b60405180910390fd5b805181602001fd5b63150b7a0260e01b7bffffffffffffffffffffffffffffffffffffffffffffffffffffffff1916817bffffffffffffffffffffffffffffffffffffffffffffffffffffffff19161461157457836040517f64a0ae9200000000000000000000000000000000000000000000000000000000815260040161156b9190612070565b60405180910390fd5b505b5050505050565b606060405180602001604052806000815250905090565b606061159f82610db1565b5060006115aa61157d565b905060008151116115ca57604051806020016040528060008152506115f5565b806115d484611a1d565b6040516020016115e5929190612815565b6040516020818303038152906040525b915050919050565b600073ffffffffffffffffffffffffffffffffffffffff168273ffffffffffffffffffffffffffffffffffffffff160361166f5760006040517f64a0ae920000000000000000000000000000000000000000000000000000000081526004016116669190612070565b60405180910390fd5b600061167d83836000610e90565b9050600073ffffffffffffffffffffffffffffffffffffffff168173ffffffffffffffffffffffffffffffffffffffff16146116f15760006040517f73c6ac6e0000000000000000000000000000000000000000000000000000000081526004016116e89190612070565b60405180910390fd5b505050565b6000634906490660e01b7bffffffffffffffffffffffffffffffffffffffffffffffffffffffff1916827bffffffffffffffffffffffffffffffffffffffffffffffffffffffff19161480611750575061174f82611aeb565b5b9050919050565b60006002600083815260200190815260200160002060009054906101000a900473ffffffffffffffffffffffffffffffffffffffff169050919050565b80806117cd5750600073ffffffffffffffffffffffffffffffffffffffff168273ffffffffffffffffffffffffffffffffffffffff1614155b156119015760006117dd84610db1565b9050600073ffffffffffffffffffffffffffffffffffffffff168373ffffffffffffffffffffffffffffffffffffffff161415801561184857508273ffffffffffffffffffffffffffffffffffffffff168173ffffffffffffffffffffffffffffffffffffffff1614155b801561185b57506118598184610b84565b155b1561189d57826040517fa9fbf51f0000000000000000000000000000000000000000000000000000000081526004016118949190612070565b60405180910390fd5b81156118ff57838573ffffffffffffffffffffffffffffffffffffffff168273ffffffffffffffffffffffffffffffffffffffff167f8c5be1e5ebec7d5bd14f71427d1e84f3dd0314c0f7b2291e5b200ac8c7c3b92560405160405180910390a45b505b836004600085815260200190815260200160002060006101000a81548173ffffffffffffffffffffffffffffffffffffffff021916908373ffffffffffffffffffffffffffffffffffffffff16021790555050505050565b611964838383611bcd565b611a1857600073ffffffffffffffffffffffffffffffffffffffff168373ffffffffffffffffffffffffffffffffffffffff16036119d957806040517f7e2732890000000000000000000000000000000000000000000000000000000081526004016119d09190612380565b60405180910390fd5b81816040517f177e802f000000000000000000000000000000000000000000000000000000008152600401611a0f929190612199565b60405180910390fd5b505050565b606060006001611a2c84611c8e565b01905060008167ffffffffffffffff811115611a4b57611a4a6121cc565b5b6040519080825280601f01601f191660200182016040528015611a7d5781602001600182028036833780820191505090505b509050600082602001820190505b600115611ae0578080600190039150507f3031323334353637383961626364656600000000000000000000000000000000600a86061a8153600a8581611ad457611ad36126cf565b5b04945060008503611a8b575b819350505050919050565b60007f80ac58cd000000000000000000000000000000000000000000000000000000007bffffffffffffffffffffffffffffffffffffffffffffffffffffffff1916827bffffffffffffffffffffffffffffffffffffffffffffffffffffffff19161480611bb657507f5b5e139f000000000000000000000000000000000000000000000000000000007bffffffffffffffffffffffffffffffffffffffffffffffffffffffff1916827bffffffffffffffffffffffffffffffffffffffffffffffffffffffff1916145b80611bc65750611bc582611de1565b5b9050919050565b60008073ffffffffffffffffffffffffffffffffffffffff168373ffffffffffffffffffffffffffffffffffffffff1614158015611c8557508273ffffffffffffffffffffffffffffffffffffffff168473ffffffffffffffffffffffffffffffffffffffff161480611c465750611c458484610b84565b5b80611c8457508273ffffffffffffffffffffffffffffffffffffffff16611c6c83610e39565b73ffffffffffffffffffffffffffffffffffffffff16145b5b90509392505050565b600080600090507a184f03e93ff9f4daa797ed6e38ed64bf6a1f0100000000000000008310611cec577a184f03e93ff9f4daa797ed6e38ed64bf6a1f0100000000000000008381611ce257611ce16126cf565b5b0492506040810190505b6d04ee2d6d415b85acef81000000008310611d29576d04ee2d6d415b85acef81000000008381611d1f57611d1e6126cf565b5b0492506020810190505b662386f26fc100008310611d5857662386f26fc100008381611d4e57611d4d6126cf565b5b0492506010810190505b6305f5e1008310611d81576305f5e1008381611d7757611d766126cf565b5b0492506008810190505b6127108310611da6576127108381611d9c57611d9b6126cf565b5b0492506004810190505b60648310611dc95760648381611dbf57611dbe6126cf565b5b0492506002810190505b600a8310611dd8576001810190505b80915050919050565b60007f01ffc9a7000000000000000000000000000000000000000000000000000000007bffffffffffffffffffffffffffffffffffffffffffffffffffffffff1916827bffffffffffffffffffffffffffffffffffffffffffffffffffffffff1916149050919050565b6000604051905090565b600080fd5b600080fd5b60007fffffffff0000000000000000000000000000000000000000000000000000000082169050919050565b611e9481611e5f565b8114611e9f57600080fd5b50565b600081359050611eb181611e8b565b92915050565b600060208284031215611ecd57611ecc611e55565b5b6000611edb84828501611ea2565b91505092915050565b60008115159050919050565b611ef981611ee4565b82525050565b6000602082019050611f146000830184611ef0565b92915050565b600081519050919050565b600082825260208201905092915050565b60005b83811015611f54578082015181840152602081019050611f39565b60008484015250505050565b6000601f19601f8301169050919050565b6000611f7c82611f1a565b611f868185611f25565b9350611f96818560208601611f36565b611f9f81611f60565b840191505092915050565b60006020820190508181036000830152611fc48184611f71565b905092915050565b6000819050919050565b611fdf81611fcc565b8114611fea57600080fd5b50565b600081359050611ffc81611fd6565b92915050565b60006020828403121561201857612017611e55565b5b600061202684828501611fed565b91505092915050565b600073ffffffffffffffffffffffffffffffffffffffff82169050919050565b600061205a8261202f565b9050919050565b61206a8161204f565b82525050565b60006020820190506120856000830184612061565b92915050565b6120948161204f565b811461209f57600080fd5b50565b6000813590506120b18161208b565b92915050565b600080604083850312156120ce576120cd611e55565b5b60006120dc858286016120a2565b92505060206120ed85828601611fed565b9150509250929050565b6000806000606084860312156121105761210f611e55565b5b600061211e868287016120a2565b935050602061212f868287016120a2565b925050604061214086828701611fed565b9150509250925092565b6000806040838503121561216157612160611e55565b5b600061216f85828601611fed565b925050602061218085828601611fed565b9150509250929050565b61219381611fcc565b82525050565b60006040820190506121ae6000830185612061565b6121bb602083018461218a565b9392505050565b600080fd5b600080fd5b7f4e487b7100000000000000000000000000000000000000000000000000000000600052604160045260246000fd5b61220482611f60565b810181811067ffffffffffffffff82111715612223576122226121cc565b5b80604052505050565b6000612236611e4b565b905061224282826121fb565b919050565b600067ffffffffffffffff821115612262576122616121cc565b5b61226b82611f60565b9050602081019050919050565b82818337600083830152505050565b600061229a61229584612247565b61222c565b9050828152602081018484840111156122b6576122b56121c7565b5b6122c1848285612278565b509392505050565b600082601f8301126122de576122dd6121c2565b5b81356122ee848260208601612287565b91505092915050565b6000806040838503121561230e5761230d611e55565b5b600061231c85828601611fed565b925050602083013567ffffffffffffffff81111561233d5761233c611e5a565b5b612349858286016122c9565b9150509250929050565b60006020828403121561236957612368611e55565b5b6000612377848285016120a2565b91505092915050565b6000602082019050612395600083018461218a565b92915050565b6123a481611ee4565b81146123af57600080fd5b50565b6000813590506123c18161239b565b92915050565b600080604083850312156123de576123dd611e55565b5b60006123ec858286016120a2565b92505060206123fd858286016123b2565b9150509250929050565b600067ffffffffffffffff821115612422576124216121cc565b5b61242b82611f60565b9050602081019050919050565b600061244b61244684612407565b61222c565b905082815260208101848484011115612467576124666121c7565b5b612472848285612278565b509392505050565b600082601f83011261248f5761248e6121c2565b5b813561249f848260208601612438565b91505092915050565b600080600080608085870312156124c2576124c1611e55565b5b60006124d0878288016120a2565b94505060206124e1878288016120a2565b93505060406124f287828801611fed565b925050606085013567ffffffffffffffff81111561251357612512611e5a565b5b61251f8782880161247a565b91505092959194509250565b6000806040838503121561254257612541611e55565b5b6000612550858286016120a2565b9250506020612561858286016120a2565b9150509250929050565b6000806040838503121561258257612581611e55565b5b6000612590858286016120a2565b925050602083013567ffffffffffffffff8111156125b1576125b0611e5a565b5b6125bd858286016122c9565b9150509250929050565b7f4e487b7100000000000000000000000000000000000000000000000000000000600052602260045260246000fd5b6000600282049050600182168061260e57607f821691505b602082108103612621576126206125c7565b5b50919050565b600060608201905061263c6000830186612061565b612649602083018561218a565b6126566040830184612061565b949350505050565b7f4e487b7100000000000000000000000000000000000000000000000000000000600052601160045260246000fd5b600061269882611fcc565b91506126a383611fcc565b92508282026126b181611fcc565b915082820484148315176126c8576126c761265e565b5b5092915050565b7f4e487b7100000000000000000000000000000000000000000000000000000000600052601260045260246000fd5b600061270982611fcc565b915061271483611fcc565b925082612724576127236126cf565b5b828204905092915050565b7f4e6f7420617574686f72697a6564000000000000000000000000000000000000600082015250565b6000612765600e83611f25565b91506127708261272f565b602082019050919050565b6000602082019050818103600083015261279481612758565b9050919050565b60006060820190506127b0600083018661218a565b81810360208301526127c28185611f71565b90506127d1604083018461218a565b949350505050565b600081905092915050565b60006127ef82611f1a565b6127f981856127d9565b9350612809818560208601611f36565b80840191505092915050565b600061282182856127e4565b915061282d82846127e4565b91508190509392505050565b600061284482611fcc565b91507fffffffffffffffffffffffffffffffffffffffffffffffffffffffffffffffff82036128765761287561265e565b5b600182019050919050565b60008190508160005260206000209050919050565b60006020601f8301049050919050565b600082821b905092915050565b6000600883026128e37fffffffffffffffffffffffffffffffffffffffffffffffffffffffffffffffff826128a6565b6128ed86836128a6565b95508019841693508086168417925050509392505050565b6000819050919050565b600061292a61292561292084611fcc565b612905565b611fcc565b9050919050565b6000819050919050565b6129448361290f565b61295861295082612931565b8484546128b3565b825550505050565b600090565b61296d612960565b61297881848461293b565b505050565b5b8181101561299c57612991600082612965565b60018101905061297e565b5050565b601f8211156129e1576129b281612881565b6129bb84612896565b810160208510156129ca578190505b6129de6129d685612896565b83018261297d565b50505b505050565b600082821c905092915050565b6000612a04600019846008026129e6565b1980831691505092915050565b6000612a1d83836129f3565b9150826002028217905092915050565b612a3682611f1a565b67ffffffffffffffff811115612a4f57612a4e6121cc565b5b612a5982546125f6565b612a648282856129a0565b600060209050601f831160018114612a975760008415612a85578287015190505b612a8f8582612a11565b865550612af7565b601f198416612aa586612881565b60005b82811015612acd57848901518255600182019150602085019450602081019050612aa8565b86831015612aea5784890151612ae6601f8916826129f3565b8355505b6001600288020188555050505b505050505050565b600081519050919050565b600082825260208201905092915050565b6000612b2682612aff565b612b308185612b0a565b9350612b40818560208601611f36565b612b4981611f60565b840191505092915050565b6000608082019050612b696000830187612061565b612b766020830186612061565b612b83604083018561218a565b8181036060830152612b958184612b1b565b905095945050505050565b600081519050612baf81611e8b565b92915050565b600060208284031215612bcb57612bca611e55565b5b6000612bd984828501612ba0565b9150509291505056fea26469706673582212202355ec689d19fff735c9b64190bf0a920c2526ec903e9cdcd63ea2ac75ade1a564736f6c63430008140033",
  "linkReferences": {},
  "deployedLinkReferences": {}
}